{
  "_format": "hh-sol-artifact-1",
  "contractName": "SimpleDEX",
  "sourceName": "contracts/SimpleDEX.sol",
  "abi": [
    {
      "inputs": [],
      "stateMutability": "nonpayable",
      "type": "constructor"
    },
    {
      "anonymous": false,
      "inputs": [
        {
          "indexed": true,
          "internalType": "string",
          "name": "tradeId",
          "type": "string"
        },
        {
          "indexed": true,
          "internalType": "address",
          "name": "buyer",
          "type": "address"
        },
        {
          "indexed": true,
          "internalType": "address",
          "name": "seller",
          "type": "address"
        },
        {
          "indexed": false,
          "internalType": "uint256",
          "name": "amount",
          "type": "uint256"
        },
        {
          "indexed": false,
          "internalType": "uint256",
          "name": "price",
          "type": "uint256"
        },
        {
          "indexed": false,
          "internalType": "uint256",
          "name": "timestamp",
          "type": "uint256"
        }
      ],
      "name": "TradeExecuted",
      "type": "event"
    },
    {
      "inputs": [
        {
          "internalType": "string",
          "name": "_tradeId",
          "type": "string"
        },
        {
          "internalType": "address",
          "name": "_buyer",
          "type": "address"
        },
        {
          "internalType": "address",
          "name": "_seller",
          "type": "address"
        },
        {
          "internalType": "uint256",
          "name": "_amount",
          "type": "uint256"
        },
        {
          "internalType": "uint256",
          "name": "_price",
          "type": "uint256"
        }
      ],
      "name": "executeTrade",
      "outputs": [],
      "stateMutability": "nonpayable",
      "type": "function"
    },
    {
      "inputs": [
        {
          "internalType": "string",
          "name": "_tradeId",
          "type": "string"
        }
      ],
      "name": "getTrade",
      "outputs": [
        {
          "components": [
            {
              "internalType": "string",
              "name": "tradeId",
              "type": "string"
            },
            {
              "internalType": "address",
              "name": "buyer",
              "type": "address"
            },
            {
              "internalType": "address",
              "name": "seller",
              "type": "address"
            },
            {
              "internalType": "uint256",
              "name": "amount",
              "type": "uint256"
            },
            {
              "internalType": "uint256",
              "name": "price",
              "type": "uint256"
            },
            {
              "internalType": "uint256",
              "name": "timestamp",
              "type": "uint256"
            },
            {
              "internalType": "bool",
              "name": "executed",
              "type": "bool"
            }
          ],
          "internalType": "struct SimpleDEX.Trade",
          "name": "",
          "type": "tuple"
        }
      ],
      "stateMutability": "view",
      "type": "function"
    },
    {
      "inputs": [],
      "name": "totalTradesExecuted",
      "outputs": [
        {
          "internalType": "uint256",
          "name": "",
          "type": "uint256"
        }
      ],
      "stateMutability": "view",
      "type": "function"
    },
    {
      "inputs": [
        {
          "internalType": "string",
          "name": "",
          "type": "string"
        }
      ],
      "name": "trades",
      "outputs": [
        {
          "internalType": "string",
          "name": "tradeId",
          "type": "string"
        },
        {
          "internalType": "address",
          "name": "buyer",
          "type": "address"
        },
        {
          "internalType": "address",
          "name": "seller",
          "type": "address"
        },
        {
          "internalType": "uint256",
          "name": "amount",
          "type": "uint256"
        },
        {
          "internalType": "uint256",
          "name": "price",
          "type": "uint256"
        },
        {
          "internalType": "uint256",
          "name": "timestamp",
          "type": "uint256"
        },
        {
          "internalType": "bool",
          "name": "executed",
          "type": "bool"
        }
      ],
      "stateMutability": "view",
      "type": "function"
    }
  ],
  "bytecode": "0x608060405234801561001057600080fd5b5061107d806100206000396000f3fe608060405234801561001057600080fd5b506004361061004c5760003560e01c806347a04100146100515780639fa637a814610087578063d2a037ab146100b7578063e7cf7fb3146100d5575b600080fd5b61006b6004803603810190610066919061080a565b6100f1565b60405161007e9796959493929190610947565b60405180910390f35b6100a1600480360381019061009c919061080a565b61021e565b6040516100ae9190610ad0565b60405180910390f35b6100bf6103cd565b6040516100cc9190610af2565b60405180910390f35b6100ef60048036038101906100ea9190610b65565b6103d3565b005b60008180516020810182018051848252602083016020850120818352809550505050505060009150905080600001805461012a90610c2b565b80601f016020809104026020016040519081016040528092919081815260200182805461015690610c2b565b80156101a35780601f10610178576101008083540402835291602001916101a3565b820191906000526020600020905b81548152906001019060200180831161018657829003601f168201915b5050505050908060010160009054906101000a900473ffffffffffffffffffffffffffffffffffffffff16908060020160009054906101000a900473ffffffffffffffffffffffffffffffffffffffff16908060030154908060040154908060050154908060060160009054906101000a900460ff16905087565b610226610645565b6000826040516102369190610c98565b90815260200160405180910390206040518060e001604052908160008201805461025f90610c2b565b80601f016020809104026020016040519081016040528092919081815260200182805461028b90610c2b565b80156102d85780601f106102ad576101008083540402835291602001916102d8565b820191906000526020600020905b8154815290600101906020018083116102bb57829003601f168201915b505050505081526020016001820160009054906101000a900473ffffffffffffffffffffffffffffffffffffffff1673ffffffffffffffffffffffffffffffffffffffff1673ffffffffffffffffffffffffffffffffffffffff1681526020016002820160009054906101000a900473ffffffffffffffffffffffffffffffffffffffff1673ffffffffffffffffffffffffffffffffffffffff1673ffffffffffffffffffffffffffffffffffffffff1681526020016003820154815260200160048201548152602001600582015481526020016006820160009054906101000a900460ff1615151515815250509050919050565b60015481565b6000856040516103e39190610c98565b908152602001604051809103902060060160009054906101000a900460ff1615610442576040517f08c379a000000000000000000000000000000000000000000000000000000000815260040161043990610cfb565b60405180910390fd5b6040518060e001604052808681526020018573ffffffffffffffffffffffffffffffffffffffff1681526020018473ffffffffffffffffffffffffffffffffffffffff168152602001838152602001828152602001428152602001600115158152506000866040516104b49190610c98565b908152602001604051809103902060008201518160000190816104d79190610ec7565b5060208201518160010160006101000a81548173ffffffffffffffffffffffffffffffffffffffff021916908373ffffffffffffffffffffffffffffffffffffffff16021790555060408201518160020160006101000a81548173ffffffffffffffffffffffffffffffffffffffff021916908373ffffffffffffffffffffffffffffffffffffffff160217905550606082015181600301556080820151816004015560a0820151816005015560c08201518160060160006101000a81548160ff021916908315150217905550905050600160008154809291906105ba90610fc8565b91905055508273ffffffffffffffffffffffffffffffffffffffff168473ffffffffffffffffffffffffffffffffffffffff16866040516105fb9190610c98565b60405180910390207fa78e07435812f0717b6713c980602320484bfa08e74973388df8c90ab7b1abfb85854260405161063693929190611010565b60405180910390a45050505050565b6040518060e0016040528060608152602001600073ffffffffffffffffffffffffffffffffffffffff168152602001600073ffffffffffffffffffffffffffffffffffffffff1681526020016000815260200160008152602001600081526020016000151581525090565b6000604051905090565b600080fd5b600080fd5b600080fd5b600080fd5b6000601f19601f8301169050919050565b7f4e487b7100000000000000000000000000000000000000000000000000000000600052604160045260246000fd5b610717826106ce565b810181811067ffffffffffffffff82111715610736576107356106df565b5b80604052505050565b60006107496106b0565b9050610755828261070e565b919050565b600067ffffffffffffffff821115610775576107746106df565b5b61077e826106ce565b9050602081019050919050565b82818337600083830152505050565b60006107ad6107a88461075a565b61073f565b9050828152602081018484840111156107c9576107c86106c9565b5b6107d484828561078b565b509392505050565b600082601f8301126107f1576107f06106c4565b5b813561080184826020860161079a565b91505092915050565b6000602082840312156108205761081f6106ba565b5b600082013567ffffffffffffffff81111561083e5761083d6106bf565b5b61084a848285016107dc565b91505092915050565b600081519050919050565b600082825260208201905092915050565b60005b8381101561088d578082015181840152602081019050610872565b60008484015250505050565b60006108a482610853565b6108ae818561085e565b93506108be81856020860161086f565b6108c7816106ce565b840191505092915050565b600073ffffffffffffffffffffffffffffffffffffffff82169050919050565b60006108fd826108d2565b9050919050565b61090d816108f2565b82525050565b6000819050919050565b61092681610913565b82525050565b60008115159050919050565b6109418161092c565b82525050565b600060e0820190508181036000830152610961818a610899565b90506109706020830189610904565b61097d6040830188610904565b61098a606083018761091d565b610997608083018661091d565b6109a460a083018561091d565b6109b160c0830184610938565b98975050505050505050565b600082825260208201905092915050565b60006109d982610853565b6109e381856109bd565b93506109f381856020860161086f565b6109fc816106ce565b840191505092915050565b610a10816108f2565b82525050565b610a1f81610913565b82525050565b610a2e8161092c565b82525050565b600060e0830160008301518482036000860152610a5182826109ce565b9150506020830151610a666020860182610a07565b506040830151610a796040860182610a07565b506060830151610a8c6060860182610a16565b506080830151610a9f6080860182610a16565b5060a0830151610ab260a0860182610a16565b5060c0830151610ac560c0860182610a25565b508091505092915050565b60006020820190508181036000830152610aea8184610a34565b905092915050565b6000602082019050610b07600083018461091d565b92915050565b610b16816108f2565b8114610b2157600080fd5b50565b600081359050610b3381610b0d565b92915050565b610b4281610913565b8114610b4d57600080fd5b50565b600081359050610b5f81610b39565b92915050565b600080600080600060a08688031215610b8157610b806106ba565b5b600086013567ffffffffffffffff811115610b9f57610b9e6106bf565b5b610bab888289016107dc565b9550506020610bbc88828901610b24565b9450506040610bcd88828901610b24565b9350506060610bde88828901610b50565b9250506080610bef88828901610b50565b9150509295509295909350565b7f4e487b7100000000000000000000000000000000000000000000000000000000600052602260045260246000fd5b60006002820490506001821680610c4357607f821691505b602082108103610c5657610c55610bfc565b5b50919050565b600081905092915050565b6000610c7282610853565b610c7c8185610c5c565b9350610c8c81856020860161086f565b80840191505092915050565b6000610ca48284610c67565b915081905092915050565b7f547261646520616c726561647920657865637574656400000000000000000000600082015250565b6000610ce560168361085e565b9150610cf082610caf565b602082019050919050565b60006020820190508181036000830152610d1481610cd8565b9050919050565b60008190508160005260206000209050919050565b60006020601f8301049050919050565b600082821b905092915050565b600060088302610d7d7fffffffffffffffffffffffffffffffffffffffffffffffffffffffffffffffff82610d40565b610d878683610d40565b95508019841693508086168417925050509392505050565b6000819050919050565b6000610dc4610dbf610dba84610913565b610d9f565b610913565b9050919050565b6000819050919050565b610dde83610da9565b610df2610dea82610dcb565b848454610d4d565b825550505050565b600090565b610e07610dfa565b610e12818484610dd5565b505050565b5b81811015610e3657610e2b600082610dff565b600181019050610e18565b5050565b601f821115610e7b57610e4c81610d1b565b610e5584610d30565b81016020851015610e64578190505b610e78610e7085610d30565b830182610e17565b50505b505050565b600082821c905092915050565b6000610e9e60001984600802610e80565b1980831691505092915050565b6000610eb78383610e8d565b9150826002028217905092915050565b610ed082610853565b67ffffffffffffffff811115610ee957610ee86106df565b5b610ef38254610c2b565b610efe828285610e3a565b600060209050601f831160018114610f315760008415610f1f578287015190505b610f298582610eab565b865550610f91565b601f198416610f3f86610d1b565b60005b82811015610f6757848901518255600182019150602085019450602081019050610f42565b86831015610f845784890151610f80601f891682610e8d565b8355505b6001600288020188555050505b505050505050565b7f4e487b7100000000000000000000000000000000000000000000000000000000600052601160045260246000fd5b6000610fd382610913565b91507fffffffffffffffffffffffffffffffffffffffffffffffffffffffffffffffff820361100557611004610f99565b5b600182019050919050565b6000606082019050611025600083018661091d565b611032602083018561091d565b61103f604083018461091d565b94935050505056fea2646970667358221220ed77493e6e3540bf155412b1d97a7ab22bc9066678d117c44c161c8cf8b25e2964736f6c63430008140033",
  "linkReferences": {},
  "deployedLinkReferences": {}
}